{
  "_format": "hh-sol-artifact-1",
  "contractName": "WebDemocracy",
  "sourceName": "Contracts/WebDemocracy.sol",
  "abi": [
    {
      "inputs": [
        {
          "internalType": "address payable",
          "name": "_webDemocracy",
          "type": "address"
        }
      ],
      "stateMutability": "nonpayable",
      "type": "constructor"
    },
    {
      "anonymous": false,
      "inputs": [
        {
          "indexed": true,
          "internalType": "address",
          "name": "owner",
          "type": "address"
        },
        {
          "indexed": true,
          "internalType": "address",
          "name": "spender",
          "type": "address"
        },
        {
          "indexed": false,
          "internalType": "uint256",
          "name": "value",
          "type": "uint256"
        }
      ],
      "name": "Approval",
      "type": "event"
    },
    {
      "anonymous": false,
      "inputs": [
        {
          "indexed": false,
          "internalType": "uint256",
          "name": "disputeID",
          "type": "uint256"
        },
        {
          "indexed": false,
          "internalType": "uint8",
          "name": "winner",
          "type": "uint8"
        }
      ],
      "name": "DisputeFinished",
      "type": "event"
    },
    {
      "anonymous": false,
      "inputs": [
        {
          "indexed": true,
          "internalType": "address",
          "name": "buyer",
          "type": "address"
        },
        {
          "indexed": true,
          "internalType": "address",
          "name": "seller",
          "type": "address"
        },
        {
          "indexed": false,
          "internalType": "uint256",
          "name": "disputeID",
          "type": "uint256"
        },
        {
          "indexed": false,
          "internalType": "uint256",
          "name": "timeToFinish",
          "type": "uint256"
        }
      ],
      "name": "DisputeGenerated",
      "type": "event"
    },
    {
      "anonymous": false,
      "inputs": [
        {
          "indexed": true,
          "internalType": "address",
          "name": "jurorRevocated",
          "type": "address"
        },
        {
          "indexed": true,
          "internalType": "address",
          "name": "newJuror",
          "type": "address"
        },
        {
          "indexed": false,
          "internalType": "uint256",
          "name": "disputeID",
          "type": "uint256"
        }
      ],
      "name": "JurorRevocated",
      "type": "event"
    },
    {
      "anonymous": false,
      "inputs": [
        {
          "indexed": false,
          "internalType": "uint256",
          "name": "disputeID",
          "type": "uint256"
        },
        {
          "indexed": true,
          "internalType": "address[]",
          "name": "jurys",
          "type": "address[]"
        }
      ],
      "name": "JuryGenerated",
      "type": "event"
    },
    {
      "anonymous": false,
      "inputs": [
        {
          "indexed": true,
          "internalType": "address",
          "name": "staker",
          "type": "address"
        },
        {
          "indexed": false,
          "internalType": "uint256",
          "name": "amount",
          "type": "uint256"
        }
      ],
      "name": "NewStaker",
      "type": "event"
    },
    {
      "anonymous": false,
      "inputs": [
        {
          "indexed": true,
          "internalType": "address",
          "name": "previousOwner",
          "type": "address"
        },
        {
          "indexed": true,
          "internalType": "address",
          "name": "newOwner",
          "type": "address"
        }
      ],
      "name": "OwnershipTransferred",
      "type": "event"
    },
    {
      "anonymous": false,
      "inputs": [
        {
          "indexed": false,
          "internalType": "address",
          "name": "buyer",
          "type": "address"
        },
        {
          "indexed": false,
          "internalType": "uint256",
          "name": "amount",
          "type": "uint256"
        }
      ],
      "name": "TokenPurchased",
      "type": "event"
    },
    {
      "anonymous": false,
      "inputs": [
        {
          "indexed": true,
          "internalType": "address",
          "name": "from",
          "type": "address"
        },
        {
          "indexed": true,
          "internalType": "address",
          "name": "to",
          "type": "address"
        },
        {
          "indexed": false,
          "internalType": "uint256",
          "name": "value",
          "type": "uint256"
        }
      ],
      "name": "Transfer",
      "type": "event"
    },
    {
      "inputs": [
        {
          "internalType": "address",
          "name": "owner",
          "type": "address"
        },
        {
          "internalType": "address",
          "name": "spender",
          "type": "address"
        }
      ],
      "name": "allowance",
      "outputs": [
        {
          "internalType": "uint256",
          "name": "",
          "type": "uint256"
        }
      ],
      "stateMutability": "view",
      "type": "function"
    },
    {
      "inputs": [
        {
          "internalType": "address",
          "name": "_juror",
          "type": "address"
        }
      ],
      "name": "amountStaked",
      "outputs": [
        {
          "internalType": "uint256",
          "name": "",
          "type": "uint256"
        }
      ],
      "stateMutability": "view",
      "type": "function"
    },
    {
      "inputs": [
        {
          "internalType": "uint256",
          "name": "_disputeID",
          "type": "uint256"
        },
        {
          "internalType": "uint8",
          "name": "_juryNeeded",
          "type": "uint8"
        },
        {
          "internalType": "uint256",
          "name": "_dificulty",
          "type": "uint256"
        }
      ],
      "name": "appeal",
      "outputs": [],
      "stateMutability": "payable",
      "type": "function"
    },
    {
      "inputs": [
        {
          "internalType": "address",
          "name": "spender",
          "type": "address"
        },
        {
          "internalType": "uint256",
          "name": "amount",
          "type": "uint256"
        }
      ],
      "name": "approve",
      "outputs": [
        {
          "internalType": "bool",
          "name": "",
          "type": "bool"
        }
      ],
      "stateMutability": "nonpayable",
      "type": "function"
    },
    {
      "inputs": [
        {
          "internalType": "uint8",
          "name": "_nbJury",
          "type": "uint8"
        }
      ],
      "name": "arbitrationFee",
      "outputs": [
        {
          "internalType": "uint256",
          "name": "",
          "type": "uint256"
        }
      ],
      "stateMutability": "view",
      "type": "function"
    },
    {
      "inputs": [
        {
          "internalType": "address",
          "name": "account",
          "type": "address"
        }
      ],
      "name": "balanceOf",
      "outputs": [
        {
          "internalType": "uint256",
          "name": "",
          "type": "uint256"
        }
      ],
      "stateMutability": "view",
      "type": "function"
    },
    {
      "inputs": [
        {
          "internalType": "address",
          "name": "_juror",
          "type": "address"
        }
      ],
      "name": "balanceUser",
      "outputs": [
        {
          "internalType": "uint256",
          "name": "",
          "type": "uint256"
        }
      ],
      "stateMutability": "view",
      "type": "function"
    },
    {
      "inputs": [
        {
          "internalType": "uint256",
          "name": "_amount",
          "type": "uint256"
        }
      ],
      "name": "burn",
      "outputs": [],
      "stateMutability": "nonpayable",
      "type": "function"
    },
    {
      "inputs": [
        {
          "internalType": "uint256",
          "name": "_amount",
          "type": "uint256"
        }
      ],
      "name": "buyTokens",
      "outputs": [],
      "stateMutability": "payable",
      "type": "function"
    },
    {
      "inputs": [],
      "name": "checkTokenPrice",
      "outputs": [
        {
          "internalType": "uint256",
          "name": "",
          "type": "uint256"
        }
      ],
      "stateMutability": "view",
      "type": "function"
    },
    {
      "inputs": [
        {
          "internalType": "address",
          "name": "_juror",
          "type": "address"
        }
      ],
      "name": "checkTokensStaked",
      "outputs": [
        {
          "internalType": "uint256",
          "name": "",
          "type": "uint256"
        }
      ],
      "stateMutability": "view",
      "type": "function"
    },
    {
      "inputs": [],
      "name": "checkWDFee",
      "outputs": [
        {
          "internalType": "uint256",
          "name": "",
          "type": "uint256"
        }
      ],
      "stateMutability": "view",
      "type": "function"
    },
    {
      "inputs": [],
      "name": "decimals",
      "outputs": [
        {
          "internalType": "uint8",
          "name": "",
          "type": "uint8"
        }
      ],
      "stateMutability": "view",
      "type": "function"
    },
    {
      "inputs": [
        {
          "internalType": "address",
          "name": "spender",
          "type": "address"
        },
        {
          "internalType": "uint256",
          "name": "subtractedValue",
          "type": "uint256"
        }
      ],
      "name": "decreaseAllowance",
      "outputs": [
        {
          "internalType": "bool",
          "name": "",
          "type": "bool"
        }
      ],
      "stateMutability": "nonpayable",
      "type": "function"
    },
    {
      "inputs": [
        {
          "internalType": "uint256",
          "name": "",
          "type": "uint256"
        },
        {
          "internalType": "address",
          "name": "",
          "type": "address"
        }
      ],
      "name": "disputeActive",
      "outputs": [
        {
          "internalType": "bool",
          "name": "",
          "type": "bool"
        }
      ],
      "stateMutability": "view",
      "type": "function"
    },
    {
      "inputs": [
        {
          "internalType": "address",
          "name": "_buyer",
          "type": "address"
        },
        {
          "internalType": "address",
          "name": "_seller",
          "type": "address"
        },
        {
          "internalType": "uint256",
          "name": "_dificulty",
          "type": "uint256"
        },
        {
          "internalType": "uint8",
          "name": "_juryNeeded",
          "type": "uint8"
        }
      ],
      "name": "generateDispute",
      "outputs": [],
      "stateMutability": "payable",
      "type": "function"
    },
    {
      "inputs": [
        {
          "internalType": "address",
          "name": "spender",
          "type": "address"
        },
        {
          "internalType": "uint256",
          "name": "addedValue",
          "type": "uint256"
        }
      ],
      "name": "increaseAllowance",
      "outputs": [
        {
          "internalType": "bool",
          "name": "",
          "type": "bool"
        }
      ],
      "stateMutability": "nonpayable",
      "type": "function"
    },
    {
      "inputs": [
        {
          "internalType": "uint256",
          "name": "_id",
          "type": "uint256"
        },
        {
          "internalType": "address",
          "name": "_juror",
          "type": "address"
        }
      ],
      "name": "juryRightToVote",
      "outputs": [
        {
          "internalType": "bool",
          "name": "",
          "type": "bool"
        }
      ],
      "stateMutability": "view",
      "type": "function"
    },
    {
      "inputs": [
        {
          "internalType": "uint256",
          "name": "_id",
          "type": "uint256"
        }
      ],
      "name": "jurySelected",
      "outputs": [
        {
          "internalType": "address[]",
          "name": "",
          "type": "address[]"
        }
      ],
      "stateMutability": "view",
      "type": "function"
    },
    {
      "inputs": [
        {
          "internalType": "uint256",
          "name": "_amount",
          "type": "uint256"
        }
      ],
      "name": "mint",
      "outputs": [],
      "stateMutability": "nonpayable",
      "type": "function"
    },
    {
      "inputs": [],
      "name": "name",
      "outputs": [
        {
          "internalType": "string",
          "name": "",
          "type": "string"
        }
      ],
      "stateMutability": "view",
      "type": "function"
    },
    {
      "inputs": [],
      "name": "owner",
      "outputs": [
        {
          "internalType": "address",
          "name": "",
          "type": "address"
        }
      ],
      "stateMutability": "view",
      "type": "function"
    },
    {
      "inputs": [],
      "name": "renounceOwnership",
      "outputs": [],
      "stateMutability": "nonpayable",
      "type": "function"
    },
    {
      "inputs": [
        {
          "internalType": "address",
          "name": "_jurorRevocated",
          "type": "address"
        },
        {
          "internalType": "address",
          "name": "_newJuror",
          "type": "address"
        },
        {
          "internalType": "uint256",
          "name": "_disputeID",
          "type": "uint256"
        },
        {
          "internalType": "uint256",
          "name": "_dificulty",
          "type": "uint256"
        }
      ],
      "name": "revocateJuror",
      "outputs": [],
      "stateMutability": "nonpayable",
      "type": "function"
    },
    {
      "inputs": [
        {
          "internalType": "uint256",
          "name": "",
          "type": "uint256"
        },
        {
          "internalType": "address",
          "name": "",
          "type": "address"
        }
      ],
      "name": "rightToVote",
      "outputs": [
        {
          "internalType": "bool",
          "name": "",
          "type": "bool"
        }
      ],
      "stateMutability": "view",
      "type": "function"
    },
    {
      "inputs": [
        {
          "internalType": "address payable",
          "name": "_newOwner",
          "type": "address"
        }
      ],
      "name": "setNewOnwer",
      "outputs": [],
      "stateMutability": "nonpayable",
      "type": "function"
    },
    {
      "inputs": [
        {
          "internalType": "uint256",
          "name": "_amount",
          "type": "uint256"
        }
      ],
      "name": "stake",
      "outputs": [],
      "stateMutability": "nonpayable",
      "type": "function"
    },
    {
      "inputs": [],
      "name": "stopStartNewDisputes",
      "outputs": [],
      "stateMutability": "nonpayable",
      "type": "function"
    },
    {
      "inputs": [
        {
          "internalType": "uint256",
          "name": "_disputeID",
          "type": "uint256"
        },
        {
          "internalType": "address[]",
          "name": "_jurySelected",
          "type": "address[]"
        }
      ],
      "name": "storeJurys",
      "outputs": [],
      "stateMutability": "nonpayable",
      "type": "function"
    },
    {
      "inputs": [],
      "name": "symbol",
      "outputs": [
        {
          "internalType": "string",
          "name": "",
          "type": "string"
        }
      ],
      "stateMutability": "view",
      "type": "function"
    },
    {
      "inputs": [
        {
          "internalType": "address",
          "name": "",
          "type": "address"
        }
      ],
      "name": "tokensStaked",
      "outputs": [
        {
          "internalType": "uint256",
          "name": "",
          "type": "uint256"
        }
      ],
      "stateMutability": "view",
      "type": "function"
    },
    {
      "inputs": [],
      "name": "totalSupply",
      "outputs": [
        {
          "internalType": "uint256",
          "name": "",
          "type": "uint256"
        }
      ],
      "stateMutability": "view",
      "type": "function"
    },
    {
      "inputs": [
        {
          "internalType": "address",
          "name": "_to",
          "type": "address"
        },
        {
          "internalType": "uint256",
          "name": "_amount",
          "type": "uint256"
        }
      ],
      "name": "transfer",
      "outputs": [
        {
          "internalType": "bool",
          "name": "success",
          "type": "bool"
        }
      ],
      "stateMutability": "nonpayable",
      "type": "function"
    },
    {
      "inputs": [
        {
          "internalType": "address",
          "name": "from",
          "type": "address"
        },
        {
          "internalType": "address",
          "name": "to",
          "type": "address"
        },
        {
          "internalType": "uint256",
          "name": "amount",
          "type": "uint256"
        }
      ],
      "name": "transferFrom",
      "outputs": [
        {
          "internalType": "bool",
          "name": "",
          "type": "bool"
        }
      ],
      "stateMutability": "nonpayable",
      "type": "function"
    },
    {
      "inputs": [
        {
          "internalType": "address",
          "name": "newOwner",
          "type": "address"
        }
      ],
      "name": "transferOwnership",
      "outputs": [],
      "stateMutability": "nonpayable",
      "type": "function"
    },
    {
      "inputs": [
        {
          "internalType": "uint256",
          "name": "_amount",
          "type": "uint256"
        },
        {
          "internalType": "address",
          "name": "_juror",
          "type": "address"
        }
      ],
      "name": "unStake",
      "outputs": [],
      "stateMutability": "nonpayable",
      "type": "function"
    },
    {
      "inputs": [
        {
          "internalType": "uint256",
          "name": "_price",
          "type": "uint256"
        }
      ],
      "name": "updateTokenPrice",
      "outputs": [],
      "stateMutability": "nonpayable",
      "type": "function"
    },
    {
      "inputs": [
        {
          "internalType": "uint8",
          "name": "_newFee",
          "type": "uint8"
        }
      ],
      "name": "updateWDFee",
      "outputs": [],
      "stateMutability": "nonpayable",
      "type": "function"
    },
    {
      "inputs": [
        {
          "internalType": "uint256",
          "name": "_disputeID",
          "type": "uint256"
        },
        {
          "internalType": "uint8",
          "name": "_choose",
          "type": "uint8"
        }
      ],
      "name": "vote",
      "outputs": [],
      "stateMutability": "nonpayable",
      "type": "function"
    },
    {
      "stateMutability": "payable",
      "type": "receive"
    }
  ],
  "bytecode": "0x60806040526064600855655af3107a40006009556611c37937e08000600a556003600b60006101000a81548160ff021916908360ff1602179055506001600b60016101000a81548160ff0219169083151502179055506001600b60026101000a81548160ff0219169083151502179055503480156200007d57600080fd5b5060405162006693380380620066938339818101604052810190620000a391906200046a565b6040518060400160405280600c81526020017f57656244656d6f637261637900000000000000000000000000000000000000008152506040518060400160405280600381526020017f44454d0000000000000000000000000000000000000000000000000000000000815250816003908162000120919062000716565b50806004908162000132919062000716565b5050506200015562000149620001bb60201b60201c565b620001c360201b60201c565b62000173306b033b2e3c9fd0803ce80000006200028960201b60201c565b80600660006101000a81548173ffffffffffffffffffffffffffffffffffffffff021916908373ffffffffffffffffffffffffffffffffffffffff1602179055505062000918565b600033905090565b6000600560009054906101000a900473ffffffffffffffffffffffffffffffffffffffff16905081600560006101000a81548173ffffffffffffffffffffffffffffffffffffffff021916908373ffffffffffffffffffffffffffffffffffffffff1602179055508173ffffffffffffffffffffffffffffffffffffffff168173ffffffffffffffffffffffffffffffffffffffff167f8be0079c531659141344cd1fd0a4f28419497f9722a3daafe3b4186f6b6457e060405160405180910390a35050565b600073ffffffffffffffffffffffffffffffffffffffff168273ffffffffffffffffffffffffffffffffffffffff1603620002fb576040517f08c379a0000000000000000000000000000000000000000000000000000000008152600401620002f2906200085e565b60405180910390fd5b6200030f60008383620003f660201b60201c565b8060026000828254620003239190620008af565b92505081905550806000808473ffffffffffffffffffffffffffffffffffffffff1673ffffffffffffffffffffffffffffffffffffffff168152602001908152602001600020600082825401925050819055508173ffffffffffffffffffffffffffffffffffffffff16600073ffffffffffffffffffffffffffffffffffffffff167fddf252ad1be2c89b69c2b068fc378daa952ba7f163c4a11628f55a4df523b3ef83604051620003d69190620008fb565b60405180910390a3620003f260008383620003fb60201b60201c565b5050565b505050565b505050565b600080fd5b600073ffffffffffffffffffffffffffffffffffffffff82169050919050565b6000620004328262000405565b9050919050565b620004448162000425565b81146200045057600080fd5b50565b600081519050620004648162000439565b92915050565b60006020828403121562000483576200048262000400565b5b6000620004938482850162000453565b91505092915050565b600081519050919050565b7f4e487b7100000000000000000000000000000000000000000000000000000000600052604160045260246000fd5b7f4e487b7100000000000000000000000000000000000000000000000000000000600052602260045260246000fd5b600060028204905060018216806200051e57607f821691505b602082108103620005345762000533620004d6565b5b50919050565b60008190508160005260206000209050919050565b60006020601f8301049050919050565b600082821b905092915050565b6000600883026200059e7fffffffffffffffffffffffffffffffffffffffffffffffffffffffffffffffff826200055f565b620005aa86836200055f565b95508019841693508086168417925050509392505050565b6000819050919050565b6000819050919050565b6000620005f7620005f1620005eb84620005c2565b620005cc565b620005c2565b9050919050565b6000819050919050565b6200061383620005d6565b6200062b6200062282620005fe565b8484546200056c565b825550505050565b600090565b6200064262000633565b6200064f81848462000608565b505050565b5b8181101562000677576200066b60008262000638565b60018101905062000655565b5050565b601f821115620006c65762000690816200053a565b6200069b846200054f565b81016020851015620006ab578190505b620006c3620006ba856200054f565b83018262000654565b50505b505050565b600082821c905092915050565b6000620006eb60001984600802620006cb565b1980831691505092915050565b6000620007068383620006d8565b9150826002028217905092915050565b62000721826200049c565b67ffffffffffffffff8111156200073d576200073c620004a7565b5b62000749825462000505565b620007568282856200067b565b600060209050601f8311600181146200078e576000841562000779578287015190505b620007858582620006f8565b865550620007f5565b601f1984166200079e866200053a565b60005b82811015620007c857848901518255600182019150602085019450602081019050620007a1565b86831015620007e85784890151620007e4601f891682620006d8565b8355505b6001600288020188555050505b505050505050565b600082825260208201905092915050565b7f45524332303a206d696e7420746f20746865207a65726f206164647265737300600082015250565b600062000846601f83620007fd565b915062000853826200080e565b602082019050919050565b60006020820190508181036000830152620008798162000837565b9050919050565b7f4e487b7100000000000000000000000000000000000000000000000000000000600052601160045260246000fd5b6000620008bc82620005c2565b9150620008c983620005c2565b9250828201905080821115620008e457620008e362000880565b5b92915050565b620008f581620005c2565b82525050565b6000602082019050620009126000830184620008ea565b92915050565b615d6b80620009286000396000f3fe6080604052600436106102345760003560e01c8063676c0d771161012e578063a0712d68116100ab578063b96d25bd1161006f578063b96d25bd14610865578063dd62ed3e146108a2578063ef40a670146108df578063f2fde38b1461091c578063f5eb8890146109455761023b565b8063a0712d6814610770578063a457c2d714610799578063a694fc3a146107d6578063a9059cbb146107ff578063ac92c7b31461083c5761023b565b806381e9b9be116100f257806381e9b9be1461068b5780638da5cb5b146106b4578063943e8216146106df578063946761ef1461070857806395d89b41146107455761023b565b8063676c0d77146105ba5780636c217a02146105e357806370a082311461060c578063715018a6146106495780637845f199146106605761023b565b806323b872dd116101bc578063395093511161018057806339509351146104d757806342966c681461051457806343c36b421461053d57806352fad476146105545780635bee16f0146105915761023b565b806323b872dd146103eb5780632cf01b5514610428578063313ce5671461046557806334d9e5ac146104905780633610724e146104bb5761023b565b80630b3e9c96116102035780630b3e9c96146102ed5780630f0a7bc71461032a57806318160ddd146103675780631c5943271461039257806322c8a43e146103cf5761023b565b80630683cd1d1461024057806306fdde0314610269578063095ea7b31461029457806309a22e02146102d15761023b565b3661023b57005b600080fd5b34801561024c57600080fd5b5061026760048036038101906102629190614243565b610982565b005b34801561027557600080fd5b5061027e610bba565b60405161028b919061433a565b60405180910390f35b3480156102a057600080fd5b506102bb60048036038101906102b6919061435c565b610c4c565b6040516102c891906143b7565b60405180910390f35b6102eb60048036038101906102e6919061440b565b610c6f565b005b3480156102f957600080fd5b50610314600480360381019061030f9190614472565b611055565b60405161032191906144ae565b60405180910390f35b34801561033657600080fd5b50610351600480360381019061034c91906144c9565b61106f565b60405161035e91906143b7565b60405180910390f35b34801561037357600080fd5b5061037c6110d7565b60405161038991906144ae565b60405180910390f35b34801561039e57600080fd5b506103b960048036038101906103b49190614509565b6110e1565b6040516103c691906145f4565b60405180910390f35b6103e960048036038101906103e49190614616565b611182565b005b3480156103f757600080fd5b50610412600480360381019061040d9190614669565b61168e565b60405161041f91906143b7565b60405180910390f35b34801561043457600080fd5b5061044f600480360381019061044a91906146bc565b6116bd565b60405161045c91906144ae565b60405180910390f35b34801561047157600080fd5b5061047a6116d5565b60405161048791906146f8565b60405180910390f35b34801561049c57600080fd5b506104a56116de565b6040516104b291906144ae565b60405180910390f35b6104d560048036038101906104d09190614509565b6116e8565b005b3480156104e357600080fd5b506104fe60048036038101906104f9919061435c565b611827565b60405161050b91906143b7565b60405180910390f35b34801561052057600080fd5b5061053b60048036038101906105369190614509565b61185e565b005b34801561054957600080fd5b50610552611873565b005b34801561056057600080fd5b5061057b600480360381019061057691906144c9565b6118a7565b60405161058891906143b7565b60405180910390f35b34801561059d57600080fd5b506105b860048036038101906105b3919061485b565b6118d6565b005b3480156105c657600080fd5b506105e160048036038101906105dc9190614509565b611ae9565b005b3480156105ef57600080fd5b5061060a600480360381019061060591906144c9565b611afb565b005b34801561061857600080fd5b50610633600480360381019061062e91906146bc565b611e2d565b60405161064091906144ae565b60405180910390f35b34801561065557600080fd5b5061065e611e75565b005b34801561066c57600080fd5b50610675611e89565b60405161068291906144ae565b60405180910390f35b34801561069757600080fd5b506106b260048036038101906106ad91906148f5565b611ea3565b005b3480156106c057600080fd5b506106c9611eef565b6040516106d69190614931565b60405180910390f35b3480156106eb57600080fd5b506107066004803603810190610701919061494c565b611f19565b005b34801561071457600080fd5b5061072f600480360381019061072a91906146bc565b6124bb565b60405161073c91906144ae565b60405180910390f35b34801561075157600080fd5b5061075a612504565b604051610767919061433a565b60405180910390f35b34801561077c57600080fd5b5061079760048036038101906107929190614509565b612596565b005b3480156107a557600080fd5b506107c060048036038101906107bb919061435c565b6125ab565b6040516107cd91906143b7565b60405180910390f35b3480156107e257600080fd5b506107fd60048036038101906107f89190614509565b612622565b005b34801561080b57600080fd5b506108266004803603810190610821919061435c565b6128ca565b60405161083391906143b7565b60405180910390f35b34801561084857600080fd5b50610863600480360381019061085e9190614472565b6128dd565b005b34801561087157600080fd5b5061088c600480360381019061088791906144c9565b612903565b60405161089991906143b7565b60405180910390f35b3480156108ae57600080fd5b506108c960048036038101906108c4919061498c565b612932565b6040516108d691906144ae565b60405180910390f35b3480156108eb57600080fd5b50610906600480360381019061090191906146bc565b6129b9565b60405161091391906144ae565b60405180910390f35b34801561092857600080fd5b50610943600480360381019061093e91906146bc565b612a02565b005b34801561095157600080fd5b5061096c600480360381019061096791906146bc565b612a85565b60405161097991906144ae565b60405180910390f35b61098a612a97565b60006012600084815260200190815260200160002080549050905060016015600085815260200190815260200160002060008673ffffffffffffffffffffffffffffffffffffffff1673ffffffffffffffffffffffffffffffffffffffff16815260200190815260200160002060006101000a81548160ff02191690831515021790555060005b81811015610b4d578573ffffffffffffffffffffffffffffffffffffffff16601260008681526020019081526020016000208281548110610a5557610a546149cc565b5b9060005260206000200160009054906101000a900473ffffffffffffffffffffffffffffffffffffffff1673ffffffffffffffffffffffffffffffffffffffff1603610b3a5784601260008681526020019081526020016000208281548110610ac157610ac06149cc565b5b9060005260206000200160006101000a81548173ffffffffffffffffffffffffffffffffffffffff021916908373ffffffffffffffffffffffffffffffffffffffff160217905550610b138685612b15565b8242610b1f9190614a2a565b600d6000868152602001908152602001600020600401819055505b8080610b4590614a5e565b915050610a11565b508373ffffffffffffffffffffffffffffffffffffffff168573ffffffffffffffffffffffffffffffffffffffff167fe66a8abd21bcfaa4c761bdb1d9144fd9175d67633437a217aa7ea5bbffac33f985604051610bab91906144ae565b60405180910390a35050505050565b606060038054610bc990614ad5565b80601f0160208091040260200160405190810160405280929190818152602001828054610bf590614ad5565b8015610c425780601f10610c1757610100808354040283529160200191610c42565b820191906000526020600020905b815481529060010190602001808311610c2557829003601f168201915b5050505050905090565b600080610c57612d6c565b9050610c64818585612d74565b600191505092915050565b600b60029054906101000a900460ff16610cbe576040517f08c379a0000000000000000000000000000000000000000000000000000000008152600401610cb590614b52565b60405180910390fd5b8060ff16600a54610ccf9190614b72565b341015610d11576040517f08c379a0000000000000000000000000000000000000000000000000000000008152600401610d0890614c00565b60405180910390fd5b60006040518061018001604052808673ffffffffffffffffffffffffffffffffffffffff1681526020018573ffffffffffffffffffffffffffffffffffffffff1681526020013373ffffffffffffffffffffffffffffffffffffffff168152602001600115158152602001348152602001848152602001600060ff168152602001600060ff1681526020018360ff168152602001600060ff168152602001600060ff16815260200160006002811115610dcd57610dcc614c20565b5b815250905080600d6000600754815260200190815260200160002060008201518160000160006101000a81548173ffffffffffffffffffffffffffffffffffffffff021916908373ffffffffffffffffffffffffffffffffffffffff16021790555060208201518160010160006101000a81548173ffffffffffffffffffffffffffffffffffffffff021916908373ffffffffffffffffffffffffffffffffffffffff16021790555060408201518160020160006101000a81548173ffffffffffffffffffffffffffffffffffffffff021916908373ffffffffffffffffffffffffffffffffffffffff16021790555060608201518160020160146101000a81548160ff0219169083151502179055506080820151816003015560a0820151816004015560c08201518160050160006101000a81548160ff021916908360ff16021790555060e08201518160050160016101000a81548160ff021916908360ff1602179055506101008201518160050160026101000a81548160ff021916908360ff1602179055506101208201518160050160036101000a81548160ff021916908360ff1602179055506101408201518160050160046101000a81548160ff021916908360ff1602179055506101608201518160050160056101000a81548160ff02191690836002811115610fc557610fc4614c20565b5b021790555090505060076000815480929190610fe090614a5e565b91905055508373ffffffffffffffffffffffffffffffffffffffff168573ffffffffffffffffffffffffffffffffffffffff167fb4a9488d8a64ef15cf1422673edfcba4861711311515219882a2fd97d942464160075486604051611046929190614c4f565b60405180910390a35050505050565b60008160ff16600a546110689190614b72565b9050919050565b60006015600084815260200190815260200160002060008373ffffffffffffffffffffffffffffffffffffffff1673ffffffffffffffffffffffffffffffffffffffff16815260200190815260200160002060009054906101000a900460ff16905092915050565b6000600254905090565b60606012600083815260200190815260200160002080548060200260200160405190810160405280929190818152602001828054801561117657602002820191906000526020600020905b8160009054906101000a900473ffffffffffffffffffffffffffffffffffffffff1673ffffffffffffffffffffffffffffffffffffffff168152602001906001019080831161112c575b50505050509050919050565b600b60029054906101000a900460ff166111d1576040517f08c379a00000000000000000000000000000000000000000000000000000000081526004016111c890614b52565b60405180910390fd5b8160ff16600a546111e29190614b72565b341015611224576040517f08c379a000000000000000000000000000000000000000000000000000000000815260040161121b90614cc4565b60405180910390fd5b60028081111561123757611236614c20565b5b600d600085815260200190815260200160002060050160059054906101000a900460ff16600281111561126d5761126c614c20565b5b146112ad576040517f08c379a00000000000000000000000000000000000000000000000000000000081526004016112a490614d30565b60405180910390fd5b42600d600085815260200190815260200160002060050160039054906101000a900460ff1660ff1610611315576040517f08c379a000000000000000000000000000000000000000000000000000000000815260040161130c90614d9c565b60405180910390fd5b6000600d600085815260200190815260200160002060050160049054906101000a900460ff1660ff161461137e576040517f08c379a000000000000000000000000000000000000000000000000000000000815260040161137590614e08565b60405180910390fd5b3373ffffffffffffffffffffffffffffffffffffffff16600d600085815260200190815260200160002060020160009054906101000a900473ffffffffffffffffffffffffffffffffffffffff1673ffffffffffffffffffffffffffffffffffffffff1614611422576040517f08c379a000000000000000000000000000000000000000000000000000000000815260040161141990614e74565b60405180910390fd5b6001600d600085815260200190815260200160002060050160056101000a81548160ff0219169083600281111561145c5761145b614c20565b5b02179055506001600d600085815260200190815260200160002060020160146101000a81548160ff0219169083151502179055506001600d600085815260200190815260200160002060050160046101000a81548160ff021916908360ff16021790555034600d6000858152602001908152602001600020600301819055506000600d600085815260200190815260200160002060050160006101000a81548160ff021916908360ff1602179055506000600d600085815260200190815260200160002060050160016101000a81548160ff021916908360ff16021790555080426115479190614a2a565b600d6000858152602001908152602001600020600401819055506001600d600085815260200190815260200160002060050160056101000a81548160ff0219169083600281111561159b5761159a614c20565b5b0217905550600d600084815260200190815260200160002060010160009054906101000a900473ffffffffffffffffffffffffffffffffffffffff1673ffffffffffffffffffffffffffffffffffffffff16600d600085815260200190815260200160002060000160009054906101000a900473ffffffffffffffffffffffffffffffffffffffff1673ffffffffffffffffffffffffffffffffffffffff167fb4a9488d8a64ef15cf1422673edfcba4861711311515219882a2fd97d942464185600d600088815260200190815260200160002060040154604051611681929190614c4f565b60405180910390a3505050565b600080611699612d6c565b90506116a6858285612f3d565b6116b1858585612fc9565b60019150509392505050565b600c6020528060005260406000206000915090505481565b60006012905090565b6000600954905090565b600b60019054906101000a900460ff16611737576040517f08c379a000000000000000000000000000000000000000000000000000000000815260040161172e90614ee0565b60405180910390fd5b60006117428261323f565b905080341015611787576040517f08c379a000000000000000000000000000000000000000000000000000000000815260040161177e90614f4c565b60405180910390fd5b600081346117959190614f6c565b90503373ffffffffffffffffffffffffffffffffffffffff166108fc829081150290604051600060405180830381858888f193505050501580156117dd573d6000803e3d6000fd5b506117e9303385612fc9565b7f55c18555197c6574627cf460c66073d10aa05d412468800b7b71feeaf82ea92d338460405161181a929190614fa0565b60405180910390a1505050565b600080611832612d6c565b90506118538185856118448589612932565b61184e9190614a2a565b612d74565b600191505092915050565b611866612a97565b6118703082613256565b50565b61187b612a97565b600b60029054906101000a900460ff1615600b60026101000a81548160ff021916908315150217905550565b600e6020528160005260406000206020528060005260406000206000915091509054906101000a900460ff1681565b6118de612a97565b600160028111156118f2576118f1614c20565b5b600d600084815260200190815260200160002060050160059054906101000a900460ff16600281111561192857611927614c20565b5b0361195a57806018600084815260200190815260200160002090805190602001906119549291906140f4565b50611983565b806012600084815260200190815260200160002090805190602001906119819291906140f4565b505b60005b8151811015611a975760016015600085815260200190815260200160002060008484815181106119b9576119b86149cc565b5b602002602001015173ffffffffffffffffffffffffffffffffffffffff1673ffffffffffffffffffffffffffffffffffffffff16815260200190815260200160002060006101000a81548160ff021916908315150217905550600160176000848481518110611a2b57611a2a6149cc565b5b602002602001015173ffffffffffffffffffffffffffffffffffffffff1673ffffffffffffffffffffffffffffffffffffffff16815260200190815260200160002060006101000a81548160ff0219169083151502179055508080611a8f90614a5e565b915050611986565b5080604051611aa69190615059565b60405180910390207f4020a4614ab9d0b7700607e478afd55ef5be33afc24cd943fa8d71c8377759e783604051611add91906144ae565b60405180910390a25050565b611af1612a97565b8060098190555050565b8073ffffffffffffffffffffffffffffffffffffffff163373ffffffffffffffffffffffffffffffffffffffff161480611b825750600660009054906101000a900473ffffffffffffffffffffffffffffffffffffffff1673ffffffffffffffffffffffffffffffffffffffff163373ffffffffffffffffffffffffffffffffffffffff16145b611bc1576040517f08c379a0000000000000000000000000000000000000000000000000000000008152600401611bb8906150bc565b60405180910390fd5b6000600c60008373ffffffffffffffffffffffffffffffffffffffff1673ffffffffffffffffffffffffffffffffffffffff1681526020019081526020016000205411611c43576040517f08c379a0000000000000000000000000000000000000000000000000000000008152600401611c3a90615128565b60405180910390fd5b601760008273ffffffffffffffffffffffffffffffffffffffff1673ffffffffffffffffffffffffffffffffffffffff16815260200190815260200160002060009054906101000a900460ff1615611cd0576040517f08c379a0000000000000000000000000000000000000000000000000000000008152600401611cc790615194565b60405180910390fd5b81600c60008373ffffffffffffffffffffffffffffffffffffffff1673ffffffffffffffffffffffffffffffffffffffff1681526020019081526020016000206000828254611d1f9190614f6c565b92505081905550611d31308284612fc9565b6000601060008373ffffffffffffffffffffffffffffffffffffffff1673ffffffffffffffffffffffffffffffffffffffff16815260200190815260200160002060006101000a81548160ff0219169083151502179055506000600c60008373ffffffffffffffffffffffffffffffffffffffff1673ffffffffffffffffffffffffffffffffffffffff1681526020019081526020016000205403611e29576000601060008373ffffffffffffffffffffffffffffffffffffffff1673ffffffffffffffffffffffffffffffffffffffff16815260200190815260200160002060006101000a81548160ff0219169083151502179055505b5050565b60008060008373ffffffffffffffffffffffffffffffffffffffff1673ffffffffffffffffffffffffffffffffffffffff168152602001908152602001600020549050919050565b611e7d612a97565b611e876000613423565b565b6000600b60009054906101000a900460ff1660ff16905090565b611eab612a97565b80600660006101000a81548173ffffffffffffffffffffffffffffffffffffffff021916908373ffffffffffffffffffffffffffffffffffffffff16021790555050565b6000600560009054906101000a900473ffffffffffffffffffffffffffffffffffffffff16905090565b600d6000838152602001908152602001600020600401544210611f71576040517f08c379a0000000000000000000000000000000000000000000000000000000008152600401611f6890615200565b60405180910390fd5b600115156015600084815260200190815260200160002060003373ffffffffffffffffffffffffffffffffffffffff1673ffffffffffffffffffffffffffffffffffffffff16815260200190815260200160002060009054906101000a900460ff16151514612015576040517f08c379a000000000000000000000000000000000000000000000000000000000815260040161200c9061526c565b60405180910390fd5b60018160ff16148061202a575060028160ff16145b612069576040517f08c379a0000000000000000000000000000000000000000000000000000000008152600401612060906152d8565b60405180910390fd5b6000806000600d600086815260200190815260200160002060050160029054906101000a900460ff16905060006015600087815260200190815260200160002060003373ffffffffffffffffffffffffffffffffffffffff1673ffffffffffffffffffffffffffffffffffffffff16815260200190815260200160002060006101000a81548160ff0219169083151502179055506000600d600087815260200190815260200160002060050160049054906101000a900460ff1660ff16036121345760009250612139565b600192505b83601660003373ffffffffffffffffffffffffffffffffffffffff1673ffffffffffffffffffffffffffffffffffffffff168152602001908152602001600020600087815260200190815260200160002060008560ff1660ff16815260200190815260200160002060006101000a81548160ff021916908360ff1602179055506013600086815260200190815260200160002060008460ff1660ff16815260200190815260200160002060008560ff1660ff168152602001908152602001600020339080600181540180825580915050600190039060005260206000200160009091909190916101000a81548173ffffffffffffffffffffffffffffffffffffffff021916908373ffffffffffffffffffffffffffffffffffffffff16021790555060018460ff1603612389576001600d600087815260200190815260200160002060050160008282829054906101000a900460ff1661229991906152f8565b92506101000a81548160ff021916908360ff160217905550600d600086815260200190815260200160002060050160019054906101000a900460ff16600d600087815260200190815260200160002060050160009054906101000a900460ff1661230391906152f8565b91508060ff168260ff1603612384576000600d600087815260200190815260200160002060020160146101000a81548160ff02191690831515021790555061234a856134e9565b7f5947e1ba12da7d7605b28d16bc1247082260a2568c6de6536a01e6fc0a4e7f5a858560405161237b92919061532d565b60405180910390a15b6124b4565b60028460ff16036124b3576001600d600087815260200190815260200160002060050160018282829054906101000a900460ff166123c791906152f8565b92506101000a81548160ff021916908360ff160217905550600d600086815260200190815260200160002060050160019054906101000a900460ff16600d600087815260200190815260200160002060050160009054906101000a900460ff1661243191906152f8565b91508060ff168260ff16036124b2576000600d600087815260200190815260200160002060020160146101000a81548160ff021916908315150217905550612478856134e9565b7f5947e1ba12da7d7605b28d16bc1247082260a2568c6de6536a01e6fc0a4e7f5a85856040516124a992919061532d565b60405180910390a15b5b5b5050505050565b6000600c60008373ffffffffffffffffffffffffffffffffffffffff1673ffffffffffffffffffffffffffffffffffffffff168152602001908152602001600020549050919050565b60606004805461251390614ad5565b80601f016020809104026020016040519081016040528092919081815260200182805461253f90614ad5565b801561258c5780601f106125615761010080835404028352916020019161258c565b820191906000526020600020905b81548152906001019060200180831161256f57829003601f168201915b5050505050905090565b61259e612a97565b6125a83082613d0e565b50565b6000806125b6612d6c565b905060006125c48286612932565b905083811015612609576040517f08c379a0000000000000000000000000000000000000000000000000000000008152600401612600906153c8565b60405180910390fd5b6126168286868403612d74565b60019250505092915050565b8061262c33611e2d565b101561266d576040517f08c379a000000000000000000000000000000000000000000000000000000000815260040161266490615434565b60405180910390fd5b6008548110156126b2576040517f08c379a00000000000000000000000000000000000000000000000000000000081526004016126a9906154a0565b60405180910390fd5b61012c6126bd6110d7565b6126c79190614b72565b600c60003373ffffffffffffffffffffffffffffffffffffffff1673ffffffffffffffffffffffffffffffffffffffff16815260200190815260200160002054826127129190614a2a565b10612752576040517f08c379a00000000000000000000000000000000000000000000000000000000081526004016127499061550c565b60405180910390fd5b61275d333083612fc9565b6000612768336124bb565b90506000811480156127c45750601160003373ffffffffffffffffffffffffffffffffffffffff1673ffffffffffffffffffffffffffffffffffffffff16815260200190815260200160002060009054906101000a900460ff16155b15612818573373ffffffffffffffffffffffffffffffffffffffff167fa96c2cce65119a2170d1711a6e82f18f2006448828483ba7545e5954765436478360405161280f91906144ae565b60405180910390a25b81600c60003373ffffffffffffffffffffffffffffffffffffffff1673ffffffffffffffffffffffffffffffffffffffff16815260200190815260200160002060008282546128679190614a2a565b925050819055506001601060003373ffffffffffffffffffffffffffffffffffffffff1673ffffffffffffffffffffffffffffffffffffffff16815260200190815260200160002060006101000a81548160ff0219169083151502179055505050565b60006128d7338484612fc9565b92915050565b6128e5612a97565b80600b60006101000a81548160ff021916908360ff16021790555050565b60156020528160005260406000206020528060005260406000206000915091509054906101000a900460ff1681565b6000600160008473ffffffffffffffffffffffffffffffffffffffff1673ffffffffffffffffffffffffffffffffffffffff16815260200190815260200160002060008373ffffffffffffffffffffffffffffffffffffffff1673ffffffffffffffffffffffffffffffffffffffff16815260200190815260200160002054905092915050565b6000600c60008373ffffffffffffffffffffffffffffffffffffffff1673ffffffffffffffffffffffffffffffffffffffff168152602001908152602001600020549050919050565b612a0a612a97565b600073ffffffffffffffffffffffffffffffffffffffff168173ffffffffffffffffffffffffffffffffffffffff1603612a79576040517f08c379a0000000000000000000000000000000000000000000000000000000008152600401612a709061559e565b60405180910390fd5b612a8281613423565b50565b6000612a9082611e2d565b9050919050565b612a9f612d6c565b73ffffffffffffffffffffffffffffffffffffffff16612abd611eef565b73ffffffffffffffffffffffffffffffffffffffff1614612b13576040517f08c379a0000000000000000000000000000000000000000000000000000000008152600401612b0a9061560a565b60405180910390fd5b565b612b1d612a97565b42600d60008381526020019081526020016000206004015410612b75576040517f08c379a0000000000000000000000000000000000000000000000000000000008152600401612b6c90615676565b60405180910390fd5b600854600c60008473ffffffffffffffffffffffffffffffffffffffff1673ffffffffffffffffffffffffffffffffffffffff168152602001908152602001600020541015612bf9576040517f08c379a0000000000000000000000000000000000000000000000000000000008152600401612bf0906156e2565b60405180910390fd5b6001601460008473ffffffffffffffffffffffffffffffffffffffff1673ffffffffffffffffffffffffffffffffffffffff1681526020019081526020016000206000828254612c49919061570c565b9250508190555060006015600083815260200190815260200160002060008473ffffffffffffffffffffffffffffffffffffffff1673ffffffffffffffffffffffffffffffffffffffff16815260200190815260200160002060006101000a81548160ff021916908315150217905550600080600d600084815260200190815260200160002060050160049054906101000a900460ff1660ff1603612cf15760009050612cf6565b600190505b6000601760008573ffffffffffffffffffffffffffffffffffffffff1673ffffffffffffffffffffffffffffffffffffffff16815260200190815260200160002060006101000a81548160ff021916908315150217905550612d5a60085484611afb565b612d678330600854612fc9565b505050565b600033905090565b600073ffffffffffffffffffffffffffffffffffffffff168373ffffffffffffffffffffffffffffffffffffffff1603612de3576040517f08c379a0000000000000000000000000000000000000000000000000000000008152600401612dda906157c1565b60405180910390fd5b600073ffffffffffffffffffffffffffffffffffffffff168273ffffffffffffffffffffffffffffffffffffffff1603612e52576040517f08c379a0000000000000000000000000000000000000000000000000000000008152600401612e4990615853565b60405180910390fd5b80600160008573ffffffffffffffffffffffffffffffffffffffff1673ffffffffffffffffffffffffffffffffffffffff16815260200190815260200160002060008473ffffffffffffffffffffffffffffffffffffffff1673ffffffffffffffffffffffffffffffffffffffff168152602001908152602001600020819055508173ffffffffffffffffffffffffffffffffffffffff168373ffffffffffffffffffffffffffffffffffffffff167f8c5be1e5ebec7d5bd14f71427d1e84f3dd0314c0f7b2291e5b200ac8c7c3b92583604051612f3091906144ae565b60405180910390a3505050565b6000612f498484612932565b90507fffffffffffffffffffffffffffffffffffffffffffffffffffffffffffffffff8114612fc35781811015612fb5576040517f08c379a0000000000000000000000000000000000000000000000000000000008152600401612fac906158bf565b60405180910390fd5b612fc28484848403612d74565b5b50505050565b600073ffffffffffffffffffffffffffffffffffffffff168373ffffffffffffffffffffffffffffffffffffffff1603613038576040517f08c379a000000000000000000000000000000000000000000000000000000000815260040161302f90615951565b60405180910390fd5b600073ffffffffffffffffffffffffffffffffffffffff168273ffffffffffffffffffffffffffffffffffffffff16036130a7576040517f08c379a000000000000000000000000000000000000000000000000000000000815260040161309e906159e3565b60405180910390fd5b6130b2838383613e64565b60008060008573ffffffffffffffffffffffffffffffffffffffff1673ffffffffffffffffffffffffffffffffffffffff16815260200190815260200160002054905081811015613138576040517f08c379a000000000000000000000000000000000000000000000000000000000815260040161312f90615a75565b60405180910390fd5b8181036000808673ffffffffffffffffffffffffffffffffffffffff1673ffffffffffffffffffffffffffffffffffffffff16815260200190815260200160002081905550816000808573ffffffffffffffffffffffffffffffffffffffff1673ffffffffffffffffffffffffffffffffffffffff168152602001908152602001600020600082825401925050819055508273ffffffffffffffffffffffffffffffffffffffff168473ffffffffffffffffffffffffffffffffffffffff167fddf252ad1be2c89b69c2b068fc378daa952ba7f163c4a11628f55a4df523b3ef8460405161322691906144ae565b60405180910390a3613239848484613e69565b50505050565b60006009548261324f9190614b72565b9050919050565b600073ffffffffffffffffffffffffffffffffffffffff168273ffffffffffffffffffffffffffffffffffffffff16036132c5576040517f08c379a00000000000000000000000000000000000000000000000000000000081526004016132bc90615b07565b60405180910390fd5b6132d182600083613e64565b60008060008473ffffffffffffffffffffffffffffffffffffffff1673ffffffffffffffffffffffffffffffffffffffff16815260200190815260200160002054905081811015613357576040517f08c379a000000000000000000000000000000000000000000000000000000000815260040161334e90615b99565b60405180910390fd5b8181036000808573ffffffffffffffffffffffffffffffffffffffff1673ffffffffffffffffffffffffffffffffffffffff1681526020019081526020016000208190555081600260008282540392505081905550600073ffffffffffffffffffffffffffffffffffffffff168373ffffffffffffffffffffffffffffffffffffffff167fddf252ad1be2c89b69c2b068fc378daa952ba7f163c4a11628f55a4df523b3ef8460405161340a91906144ae565b60405180910390a361341e83600084613e69565b505050565b6000600560009054906101000a900473ffffffffffffffffffffffffffffffffffffffff16905081600560006101000a81548173ffffffffffffffffffffffffffffffffffffffff021916908373ffffffffffffffffffffffffffffffffffffffff1602179055508173ffffffffffffffffffffffffffffffffffffffff168173ffffffffffffffffffffffffffffffffffffffff167f8be0079c531659141344cd1fd0a4f28419497f9722a3daafe3b4186f6b6457e060405160405180910390a35050565b600d600082815260200190815260200160002060020160149054906101000a900460ff161561354d576040517f08c379a000000000000000000000000000000000000000000000000000000000815260040161354490615c05565b60405180910390fd5b6002600d600083815260200190815260200160002060050160056101000a81548160ff0219169083600281111561358757613586614c20565b5b02179055506000600d600083815260200190815260200160002060030154905060006002826135b69190615c54565b905060006064600b60009054906101000a900460ff1660ff16836135da9190614b72565b6135e49190615c54565b9050600080600d600087815260200190815260200160002060050160009054906101000a900460ff1690506000600d600088815260200190815260200160002060050160019054906101000a900460ff1690506000600d600089815260200190815260200160002060050160049054906101000a900460ff1690508160ff168360ff16111561391157600d600089815260200190815260200160002060000160009054906101000a900473ffffffffffffffffffffffffffffffffffffffff16935060008360ff1686886136b89190614f6c565b6136c29190615c54565b905060005b8460ff16811015613804576000601360008c815260200190815260200160002060008560ff1660ff1681526020019081526020016000206000600160ff1681526020019081526020016000208281548110613725576137246149cc565b5b9060005260206000200160009054906101000a900473ffffffffffffffffffffffffffffffffffffffff1690508073ffffffffffffffffffffffffffffffffffffffff166108fc849081150290604051600060405180830381858888f19350505050158015613798573d6000803e3d6000fd5b506001601460008373ffffffffffffffffffffffffffffffffffffffff1673ffffffffffffffffffffffffffffffffffffffff16815260200190815260200160002060008282546137e99190615c85565b925050819055505080806137fc90614a5e565b9150506136c7565b5060005b8360ff1681101561390a576000601360008c815260200190815260200160002060008560ff1660ff1681526020019081526020016000206000600260ff1681526020019081526020016000208281548110613866576138656149cc565b5b9060005260206000200160009054906101000a900473ffffffffffffffffffffffffffffffffffffffff16905061389f818c6001613e6e565b6001601460008373ffffffffffffffffffffffffffffffffffffffff1673ffffffffffffffffffffffffffffffffffffffff16815260200190815260200160002060008282546138ef919061570c565b9250508190555050808061390290614a5e565b915050613808565b5050613bb1565b600d600089815260200190815260200160002060010160009054906101000a900473ffffffffffffffffffffffffffffffffffffffff16935060008260ff16868861395c9190614f6c565b6139669190615c54565b905060005b8360ff16811015613aa8576000601360008c815260200190815260200160002060008560ff1660ff1681526020019081526020016000206000600260ff16815260200190815260200160002082815481106139c9576139c86149cc565b5b9060005260206000200160009054906101000a900473ffffffffffffffffffffffffffffffffffffffff1690508073ffffffffffffffffffffffffffffffffffffffff166108fc849081150290604051600060405180830381858888f19350505050158015613a3c573d6000803e3d6000fd5b506001601460008373ffffffffffffffffffffffffffffffffffffffff1673ffffffffffffffffffffffffffffffffffffffff1681526020019081526020016000206000828254613a8d9190615c85565b92505081905550508080613aa090614a5e565b91505061396b565b5060005b8460ff16811015613bae576000601360008c815260200190815260200160002060008560ff1660ff1681526020019081526020016000206000600160ff1681526020019081526020016000208281548110613b0a57613b096149cc565b5b9060005260206000200160009054906101000a900473ffffffffffffffffffffffffffffffffffffffff169050613b43818c6002613e6e565b6001601460008373ffffffffffffffffffffffffffffffffffffffff1673ffffffffffffffffffffffffffffffffffffffff1681526020019081526020016000206000828254613b93919061570c565b92505081905550508080613ba690614a5e565b915050613aac565b50505b600660009054906101000a900473ffffffffffffffffffffffffffffffffffffffff1673ffffffffffffffffffffffffffffffffffffffff166108fc869081150290604051600060405180830381858888f19350505050158015613c19573d6000803e3d6000fd5b508373ffffffffffffffffffffffffffffffffffffffff166108fc879081150290604051600060405180830381858888f19350505050158015613c60573d6000803e3d6000fd5b50600d600089815260200190815260200160002060020160009054906101000a900473ffffffffffffffffffffffffffffffffffffffff1673ffffffffffffffffffffffffffffffffffffffff16637436a614858a6040518363ffffffff1660e01b8152600401613cd2929190614fa0565b600060405180830381600087803b158015613cec57600080fd5b505af1158015613d00573d6000803e3d6000fd5b505050505050505050505050565b600073ffffffffffffffffffffffffffffffffffffffff168273ffffffffffffffffffffffffffffffffffffffff1603613d7d576040517f08c379a0000000000000000000000000000000000000000000000000000000008152600401613d7490615d15565b60405180910390fd5b613d8960008383613e64565b8060026000828254613d9b9190614a2a565b92505081905550806000808473ffffffffffffffffffffffffffffffffffffffff1673ffffffffffffffffffffffffffffffffffffffff168152602001908152602001600020600082825401925050819055508173ffffffffffffffffffffffffffffffffffffffff16600073ffffffffffffffffffffffffffffffffffffffff167fddf252ad1be2c89b69c2b068fc378daa952ba7f163c4a11628f55a4df523b3ef83604051613e4c91906144ae565b60405180910390a3613e6060008383613e69565b5050565b505050565b505050565b600854600c60008573ffffffffffffffffffffffffffffffffffffffff1673ffffffffffffffffffffffffffffffffffffffff168152602001908152602001600020541015613ef2576040517f08c379a0000000000000000000000000000000000000000000000000000000008152600401613ee9906156e2565b60405180910390fd5b6001601460008573ffffffffffffffffffffffffffffffffffffffff1673ffffffffffffffffffffffffffffffffffffffff1681526020019081526020016000206000828254613f42919061570c565b925050819055506000806000600d600086815260200190815260200160002060050160049054906101000a900460ff1660ff1603613f835760009050613f88565b600190505b6013600085815260200190815260200160002060008260ff1660ff16815260200190815260200160002060008460ff1660ff16815260200190815260200160002080549050915060006008548360ff16613fe29190615c54565b9050600854600c60008873ffffffffffffffffffffffffffffffffffffffff1673ffffffffffffffffffffffffffffffffffffffff16815260200190815260200160002060008282546140359190614f6c565b9250508190555060005b8360ff168110156140eb5760006013600088815260200190815260200160002060008560ff1660ff16815260200190815260200160002060008760ff1660ff168152602001908152602001600020828154811061409f5761409e6149cc565b5b9060005260206000200160009054906101000a900473ffffffffffffffffffffffffffffffffffffffff1690506140d7888285612fc9565b5080806140e390614a5e565b91505061403f565b50505050505050565b82805482825590600052602060002090810192821561416d579160200282015b8281111561416c5782518260006101000a81548173ffffffffffffffffffffffffffffffffffffffff021916908373ffffffffffffffffffffffffffffffffffffffff16021790555091602001919060010190614114565b5b50905061417a919061417e565b5090565b5b8082111561419757600081600090555060010161417f565b5090565b6000604051905090565b600080fd5b600080fd5b600073ffffffffffffffffffffffffffffffffffffffff82169050919050565b60006141da826141af565b9050919050565b6141ea816141cf565b81146141f557600080fd5b50565b600081359050614207816141e1565b92915050565b6000819050919050565b6142208161420d565b811461422b57600080fd5b50565b60008135905061423d81614217565b92915050565b6000806000806080858703121561425d5761425c6141a5565b5b600061426b878288016141f8565b945050602061427c878288016141f8565b935050604061428d8782880161422e565b925050606061429e8782880161422e565b91505092959194509250565b600081519050919050565b600082825260208201905092915050565b60005b838110156142e45780820151818401526020810190506142c9565b60008484015250505050565b6000601f19601f8301169050919050565b600061430c826142aa565b61431681856142b5565b93506143268185602086016142c6565b61432f816142f0565b840191505092915050565b600060208201905081810360008301526143548184614301565b905092915050565b60008060408385031215614373576143726141a5565b5b6000614381858286016141f8565b92505060206143928582860161422e565b9150509250929050565b60008115159050919050565b6143b18161439c565b82525050565b60006020820190506143cc60008301846143a8565b92915050565b600060ff82169050919050565b6143e8816143d2565b81146143f357600080fd5b50565b600081359050614405816143df565b92915050565b60008060008060808587031215614425576144246141a5565b5b6000614433878288016141f8565b9450506020614444878288016141f8565b93505060406144558782880161422e565b9250506060614466878288016143f6565b91505092959194509250565b600060208284031215614488576144876141a5565b5b6000614496848285016143f6565b91505092915050565b6144a88161420d565b82525050565b60006020820190506144c3600083018461449f565b92915050565b600080604083850312156144e0576144df6141a5565b5b60006144ee8582860161422e565b92505060206144ff858286016141f8565b9150509250929050565b60006020828403121561451f5761451e6141a5565b5b600061452d8482850161422e565b91505092915050565b600081519050919050565b600082825260208201905092915050565b6000819050602082019050919050565b61456b816141cf565b82525050565b600061457d8383614562565b60208301905092915050565b6000602082019050919050565b60006145a182614536565b6145ab8185614541565b93506145b683614552565b8060005b838110156145e75781516145ce8882614571565b97506145d983614589565b9250506001810190506145ba565b5085935050505092915050565b6000602082019050818103600083015261460e8184614596565b905092915050565b60008060006060848603121561462f5761462e6141a5565b5b600061463d8682870161422e565b935050602061464e868287016143f6565b925050604061465f8682870161422e565b9150509250925092565b600080600060608486031215614682576146816141a5565b5b6000614690868287016141f8565b93505060206146a1868287016141f8565b92505060406146b28682870161422e565b9150509250925092565b6000602082840312156146d2576146d16141a5565b5b60006146e0848285016141f8565b91505092915050565b6146f2816143d2565b82525050565b600060208201905061470d60008301846146e9565b92915050565b600080fd5b7f4e487b7100000000000000000000000000000000000000000000000000000000600052604160045260246000fd5b614750826142f0565b810181811067ffffffffffffffff8211171561476f5761476e614718565b5b80604052505050565b600061478261419b565b905061478e8282614747565b919050565b600067ffffffffffffffff8211156147ae576147ad614718565b5b602082029050602081019050919050565b600080fd5b60006147d76147d284614793565b614778565b905080838252602082019050602084028301858111156147fa576147f96147bf565b5b835b81811015614823578061480f88826141f8565b8452602084019350506020810190506147fc565b5050509392505050565b600082601f83011261484257614841614713565b5b81356148528482602086016147c4565b91505092915050565b60008060408385031215614872576148716141a5565b5b60006148808582860161422e565b925050602083013567ffffffffffffffff8111156148a1576148a06141aa565b5b6148ad8582860161482d565b9150509250929050565b60006148c2826141af565b9050919050565b6148d2816148b7565b81146148dd57600080fd5b50565b6000813590506148ef816148c9565b92915050565b60006020828403121561490b5761490a6141a5565b5b6000614919848285016148e0565b91505092915050565b61492b816141cf565b82525050565b60006020820190506149466000830184614922565b92915050565b60008060408385031215614963576149626141a5565b5b60006149718582860161422e565b9250506020614982858286016143f6565b9150509250929050565b600080604083850312156149a3576149a26141a5565b5b60006149b1858286016141f8565b92505060206149c2858286016141f8565b9150509250929050565b7f4e487b7100000000000000000000000000000000000000000000000000000000600052603260045260246000fd5b7f4e487b7100000000000000000000000000000000000000000000000000000000600052601160045260246000fd5b6000614a358261420d565b9150614a408361420d565b9250828201905080821115614a5857614a576149fb565b5b92915050565b6000614a698261420d565b91507fffffffffffffffffffffffffffffffffffffffffffffffffffffffffffffffff8203614a9b57614a9a6149fb565b5b600182019050919050565b7f4e487b7100000000000000000000000000000000000000000000000000000000600052602260045260246000fd5b60006002820490506001821680614aed57607f821691505b602082108103614b0057614aff614aa6565b5b50919050565b7f50726f746f636f6c20756e646572206d61696e74656e616e6365000000000000600082015250565b6000614b3c601a836142b5565b9150614b4782614b06565b602082019050919050565b60006020820190508181036000830152614b6b81614b2f565b9050919050565b6000614b7d8261420d565b9150614b888361420d565b9250828202614b968161420d565b91508282048414831517614bad57614bac6149fb565b5b5092915050565b7f4e6f7420656e6f75676820746f20706179204a75727920466565000000000000600082015250565b6000614bea601a836142b5565b9150614bf582614bb4565b602082019050919050565b60006020820190508181036000830152614c1981614bdd565b9050919050565b7f4e487b7100000000000000000000000000000000000000000000000000000000600052602160045260246000fd5b6000604082019050614c64600083018561449f565b614c71602083018461449f565b9392505050565b7f4e6f7420656e6f75676820746f20706179204a75727920666565000000000000600082015250565b6000614cae601a836142b5565b9150614cb982614c78565b602082019050919050565b60006020820190508181036000830152614cdd81614ca1565b9050919050565b7f546865206469737075746520686173206e6f742066696e697368656420796574600082015250565b6000614d1a6020836142b5565b9150614d2582614ce4565b602082019050919050565b60006020820190508181036000830152614d4981614d0d565b9050919050565b7f5468652061707065616c2074696d65206973206f766572000000000000000000600082015250565b6000614d866017836142b5565b9150614d9182614d50565b602082019050919050565b60006020820190508181036000830152614db581614d79565b9050919050565b7f596f752063616e2061707065616c206a757374206f6e652074696d6500000000600082015250565b6000614df2601c836142b5565b9150614dfd82614dbc565b602082019050919050565b60006020820190508181036000830152614e2181614de5565b9050919050565b7f596f75206e65656420746f206265207468652045636f6d6d6572636520534300600082015250565b6000614e5e601f836142b5565b9150614e6982614e28565b602082019050919050565b60006020820190508181036000830152614e8d81614e51565b9050919050565b7f5573652044455820616e64204345580000000000000000000000000000000000600082015250565b6000614eca600f836142b5565b9150614ed582614e94565b602082019050919050565b60006020820190508181036000830152614ef981614ebd565b9050919050565b7f53656e64206d6f72652045544800000000000000000000000000000000000000600082015250565b6000614f36600d836142b5565b9150614f4182614f00565b602082019050919050565b60006020820190508181036000830152614f6581614f29565b9050919050565b6000614f778261420d565b9150614f828361420d565b9250828203905081811115614f9a57614f996149fb565b5b92915050565b6000604082019050614fb56000830185614922565b614fc2602083018461449f565b9392505050565b600081905092915050565b614fdd816141cf565b82525050565b6000614fef8383614fd4565b60208301905092915050565b600061500682614536565b6150108185614fc9565b935061501b83614552565b8060005b8381101561504c5781516150338882614fe3565b975061503e83614589565b92505060018101905061501f565b5085935050505092915050565b60006150658284614ffb565b915081905092915050565b7f4e6f7420796f757220746f6b656e730000000000000000000000000000000000600082015250565b60006150a6600f836142b5565b91506150b182615070565b602082019050919050565b600060208201905081810360008301526150d581615099565b9050919050565b7f3020746f6b656e73207374616b65640000000000000000000000000000000000600082015250565b6000615112600f836142b5565b915061511d826150dc565b602082019050919050565b6000602082019050818103600083015261514181615105565b9050919050565b7f596f75722064697370757465206973206e6f742066696e697368656400000000600082015250565b600061517e601c836142b5565b915061518982615148565b602082019050919050565b600060208201905081810360008301526151ad81615171565b9050919050565b7f54696d6520746f20766f7465206973206f766572000000000000000000000000600082015250565b60006151ea6014836142b5565b91506151f5826151b4565b602082019050919050565b60006020820190508181036000830152615219816151dd565b9050919050565b7f596f7520617265206e6f7420616c6c6f7720746f20766f746500000000000000600082015250565b60006152566019836142b5565b915061526182615220565b602082019050919050565b6000602082019050818103600083015261528581615249565b9050919050565b7f54686973206f7074696f6e206973206e6f7420617661696c61626c6500000000600082015250565b60006152c2601c836142b5565b91506152cd8261528c565b602082019050919050565b600060208201905081810360008301526152f1816152b5565b9050919050565b6000615303826143d2565b915061530e836143d2565b9250828201905060ff811115615327576153266149fb565b5b92915050565b6000604082019050615342600083018561449f565b61534f60208301846146e9565b9392505050565b7f45524332303a2064656372656173656420616c6c6f77616e63652062656c6f7760008201527f207a65726f000000000000000000000000000000000000000000000000000000602082015250565b60006153b26025836142b5565b91506153bd82615356565b604082019050919050565b600060208201905081810360008301526153e1816153a5565b9050919050565b7f496e73756666696369656e742062616c616e6365000000000000000000000000600082015250565b600061541e6014836142b5565b9150615429826153e8565b602082019050919050565b6000602082019050818103600083015261544d81615411565b9050919050565b7f6d696e696d756d2050656e616c74794665650000000000000000000000000000600082015250565b600061548a6012836142b5565b915061549582615454565b602082019050919050565b600060208201905081810360008301526154b98161547d565b9050919050565b7f5265616368656420746865206d617820746f207374616b650000000000000000600082015250565b60006154f66018836142b5565b9150615501826154c0565b602082019050919050565b60006020820190508181036000830152615525816154e9565b9050919050565b7f4f776e61626c653a206e6577206f776e657220697320746865207a65726f206160008201527f6464726573730000000000000000000000000000000000000000000000000000602082015250565b60006155886026836142b5565b91506155938261552c565b604082019050919050565b600060208201905081810360008301526155b78161557b565b9050919050565b7f4f776e61626c653a2063616c6c6572206973206e6f7420746865206f776e6572600082015250565b60006155f46020836142b5565b91506155ff826155be565b602082019050919050565b60006020820190508181036000830152615623816155e7565b9050919050565b7f566f74696e672074696d65206973206e6f74206f766572000000000000000000600082015250565b60006156606017836142b5565b915061566b8261562a565b602082019050919050565b6000602082019050818103600083015261568f81615653565b9050919050565b7f4e6f7420656e6f756768207374616b696e6720666f7220746865206665650000600082015250565b60006156cc601e836142b5565b91506156d782615696565b602082019050919050565b600060208201905081810360008301526156fb816156bf565b9050919050565b6000819050919050565b600061571782615702565b915061572283615702565b9250828203905081811260008412168282136000851215161715615749576157486149fb565b5b92915050565b7f45524332303a20617070726f76652066726f6d20746865207a65726f2061646460008201527f7265737300000000000000000000000000000000000000000000000000000000602082015250565b60006157ab6024836142b5565b91506157b68261574f565b604082019050919050565b600060208201905081810360008301526157da8161579e565b9050919050565b7f45524332303a20617070726f766520746f20746865207a65726f20616464726560008201527f7373000000000000000000000000000000000000000000000000000000000000602082015250565b600061583d6022836142b5565b9150615848826157e1565b604082019050919050565b6000602082019050818103600083015261586c81615830565b9050919050565b7f45524332303a20696e73756666696369656e7420616c6c6f77616e6365000000600082015250565b60006158a9601d836142b5565b91506158b482615873565b602082019050919050565b600060208201905081810360008301526158d88161589c565b9050919050565b7f45524332303a207472616e736665722066726f6d20746865207a65726f20616460008201527f6472657373000000000000000000000000000000000000000000000000000000602082015250565b600061593b6025836142b5565b9150615946826158df565b604082019050919050565b6000602082019050818103600083015261596a8161592e565b9050919050565b7f45524332303a207472616e7366657220746f20746865207a65726f206164647260008201527f6573730000000000000000000000000000000000000000000000000000000000602082015250565b60006159cd6023836142b5565b91506159d882615971565b604082019050919050565b600060208201905081810360008301526159fc816159c0565b9050919050565b7f45524332303a207472616e7366657220616d6f756e742065786365656473206260008201527f616c616e63650000000000000000000000000000000000000000000000000000602082015250565b6000615a5f6026836142b5565b9150615a6a82615a03565b604082019050919050565b60006020820190508181036000830152615a8e81615a52565b9050919050565b7f45524332303a206275726e2066726f6d20746865207a65726f2061646472657360008201527f7300000000000000000000000000000000000000000000000000000000000000602082015250565b6000615af16021836142b5565b9150615afc82615a95565b604082019050919050565b60006020820190508181036000830152615b2081615ae4565b9050919050565b7f45524332303a206275726e20616d6f756e7420657863656564732062616c616e60008201527f6365000000000000000000000000000000000000000000000000000000000000602082015250565b6000615b836022836142b5565b9150615b8e82615b27565b604082019050919050565b60006020820190508181036000830152615bb281615b76565b9050919050565b7f5374696c6c2077616974696e6720666f7220766f746573000000000000000000600082015250565b6000615bef6017836142b5565b9150615bfa82615bb9565b602082019050919050565b60006020820190508181036000830152615c1e81615be2565b9050919050565b7f4e487b7100000000000000000000000000000000000000000000000000000000600052601260045260246000fd5b6000615c5f8261420d565b9150615c6a8361420d565b925082615c7a57615c79615c25565b5b828204905092915050565b6000615c9082615702565b9150615c9b83615702565b925082820190508281121560008312168382126000841215161715615cc357615cc26149fb565b5b92915050565b7f45524332303a206d696e7420746f20746865207a65726f206164647265737300600082015250565b6000615cff601f836142b5565b9150615d0a82615cc9565b602082019050919050565b60006020820190508181036000830152615d2e81615cf2565b905091905056fea264697066735822122058e72433e09fd9c092f4b908c8711dcf38163122a83a597647e64b3965a7495a64736f6c63430008110033",
  "linkReferences": {},
  "deployedLinkReferences": {}
}