{
  "_format": "hh-sol-artifact-1",
  "contractName": "Ecommerce",
  "sourceName": "Contracts/Ecommerce.sol",
  "abi": [
    {
      "inputs": [
        {
          "internalType": "contract WebDemocracy",
          "name": "_arbitrage",
          "type": "address"
        }
      ],
      "stateMutability": "nonpayable",
      "type": "constructor"
    },
    {
      "inputs": [],
      "name": "apelationFeeReceived",
      "outputs": [
        {
          "internalType": "uint256",
          "name": "",
          "type": "uint256"
        }
      ],
      "stateMutability": "view",
      "type": "function"
    },
    {
      "inputs": [],
      "name": "appeal",
      "outputs": [],
      "stateMutability": "payable",
      "type": "function"
    },
    {
      "inputs": [],
      "name": "buyProduct",
      "outputs": [],
      "stateMutability": "payable",
      "type": "function"
    },
    {
      "inputs": [],
      "name": "buyer",
      "outputs": [
        {
          "internalType": "address",
          "name": "",
          "type": "address"
        }
      ],
      "stateMutability": "view",
      "type": "function"
    },
    {
      "inputs": [],
      "name": "checkArbitrationFee",
      "outputs": [
        {
          "internalType": "uint256",
          "name": "",
          "type": "uint256"
        }
      ],
      "stateMutability": "view",
      "type": "function"
    },
    {
      "inputs": [],
      "name": "checkBuyer",
      "outputs": [
        {
          "internalType": "address",
          "name": "",
          "type": "address"
        }
      ],
      "stateMutability": "view",
      "type": "function"
    },
    {
      "inputs": [],
      "name": "checkSeller",
      "outputs": [
        {
          "internalType": "address",
          "name": "",
          "type": "address"
        }
      ],
      "stateMutability": "view",
      "type": "function"
    },
    {
      "inputs": [],
      "name": "checkWinner",
      "outputs": [
        {
          "internalType": "address",
          "name": "",
          "type": "address"
        }
      ],
      "stateMutability": "view",
      "type": "function"
    },
    {
      "inputs": [],
      "name": "dificulty",
      "outputs": [
        {
          "internalType": "uint24",
          "name": "",
          "type": "uint24"
        }
      ],
      "stateMutability": "view",
      "type": "function"
    },
    {
      "inputs": [],
      "name": "disputeFee",
      "outputs": [
        {
          "internalType": "uint256",
          "name": "",
          "type": "uint256"
        }
      ],
      "stateMutability": "view",
      "type": "function"
    },
    {
      "inputs": [],
      "name": "disputeFeeReceived",
      "outputs": [
        {
          "internalType": "uint256",
          "name": "",
          "type": "uint256"
        }
      ],
      "stateMutability": "view",
      "type": "function"
    },
    {
      "inputs": [],
      "name": "disputeRequested",
      "outputs": [
        {
          "internalType": "bool",
          "name": "",
          "type": "bool"
        }
      ],
      "stateMutability": "view",
      "type": "function"
    },
    {
      "inputs": [],
      "name": "generateDispute",
      "outputs": [],
      "stateMutability": "payable",
      "type": "function"
    },
    {
      "inputs": [],
      "name": "nbJuryNeeded",
      "outputs": [
        {
          "internalType": "uint8",
          "name": "",
          "type": "uint8"
        }
      ],
      "stateMutability": "view",
      "type": "function"
    },
    {
      "inputs": [],
      "name": "seller",
      "outputs": [
        {
          "internalType": "address",
          "name": "",
          "type": "address"
        }
      ],
      "stateMutability": "view",
      "type": "function"
    },
    {
      "inputs": [
        {
          "internalType": "address",
          "name": "_winner",
          "type": "address"
        },
        {
          "internalType": "uint256",
          "name": "_disputeID",
          "type": "uint256"
        }
      ],
      "name": "setWinner",
      "outputs": [],
      "stateMutability": "nonpayable",
      "type": "function"
    },
    {
      "inputs": [],
      "name": "winner",
      "outputs": [
        {
          "internalType": "address",
          "name": "",
          "type": "address"
        }
      ],
      "stateMutability": "view",
      "type": "function"
    },
    {
      "inputs": [],
      "name": "withdrawal",
      "outputs": [],
      "stateMutability": "nonpayable",
      "type": "function"
    }
  ],
  "bytecode": "0x608060405262015180600560006101000a81548162ffffff021916908362ffffff1602179055506003600960016101000a81548160ff021916908360ff16021790555062015180426200005391906200014a565b600d553480156200006357600080fd5b5060405162001b9f38038062001b9f833981810160405281019062000089919062000203565b33600260006101000a81548173ffffffffffffffffffffffffffffffffffffffff021916908373ffffffffffffffffffffffffffffffffffffffff160217905550806000806101000a81548173ffffffffffffffffffffffffffffffffffffffff021916908373ffffffffffffffffffffffffffffffffffffffff1602179055505062000235565b6000819050919050565b7f4e487b7100000000000000000000000000000000000000000000000000000000600052601160045260246000fd5b6000620001578262000111565b9150620001648362000111565b92508282019050808211156200017f576200017e6200011b565b5b92915050565b600080fd5b600073ffffffffffffffffffffffffffffffffffffffff82169050919050565b6000620001b7826200018a565b9050919050565b6000620001cb82620001aa565b9050919050565b620001dd81620001be565b8114620001e957600080fd5b50565b600081519050620001fd81620001d2565b92915050565b6000602082840312156200021c576200021b62000185565b5b60006200022c84828501620001ec565b91505092915050565b61195a80620002456000396000f3fe6080604052600436106101095760003560e01c80639ada9b7b11610095578063baf2765611610064578063baf27656146102d8578063d032288314610303578063d4e932921461032e578063dfbf53ae14610345578063e98741d11461037057610109565b80639ada9b7b1461024d5780639fa7292b14610257578063ad38867e14610282578063b9ce896b146102ad57610109565b80634cd60842116100dc5780634cd60842146101785780635ab71808146101a35780637150d8ae146101ce57806372f8780f146101f95780637436a6141461022457610109565b806308551a531461010e5780633431a0d51461013957806335bfd639146101645780633be65a5d1461016e575b600080fd5b34801561011a57600080fd5b5061012361039b565b60405161013091906110f5565b60405180910390f35b34801561014557600080fd5b5061014e6103c1565b60405161015b919061112b565b60405180910390f35b61016c6103d4565b005b610176610751565b005b34801561018457600080fd5b5061018d610bb1565b60405161019a919061115f565b60405180910390f35b3480156101af57600080fd5b506101b8610c62565b6040516101c591906110f5565b60405180910390f35b3480156101da57600080fd5b506101e3610c8c565b6040516101f091906110f5565b60405180910390f35b34801561020557600080fd5b5061020e610cb2565b60405161021b919061115f565b60405180910390f35b34801561023057600080fd5b5061024b600480360381019061024691906111d7565b610cb8565b005b610255610dbc565b005b34801561026357600080fd5b5061026c610e5f565b6040516102799190611233565b60405180910390f35b34801561028e57600080fd5b50610297610e72565b6040516102a491906110f5565b60405180910390f35b3480156102b957600080fd5b506102c2610e9c565b6040516102cf919061115f565b60405180910390f35b3480156102e457600080fd5b506102ed610ea2565b6040516102fa919061115f565b60405180910390f35b34801561030f57600080fd5b50610318610ea8565b604051610325919061126c565b60405180910390f35b34801561033a57600080fd5b50610343610ebd565b005b34801561035157600080fd5b5061035a611064565b60405161036791906110f5565b60405180910390f35b34801561037c57600080fd5b5061038561108a565b60405161039291906110f5565b60405180910390f35b600260009054906101000a900473ffffffffffffffffffffffffffffffffffffffff1681565b600960009054906101000a900460ff1681565b600160009054906101000a900473ffffffffffffffffffffffffffffffffffffffff1673ffffffffffffffffffffffffffffffffffffffff163373ffffffffffffffffffffffffffffffffffffffff16148061047d5750600260009054906101000a900473ffffffffffffffffffffffffffffffffffffffff1673ffffffffffffffffffffffffffffffffffffffff163373ffffffffffffffffffffffffffffffffffffffff16145b6104bc576040517f08c379a00000000000000000000000000000000000000000000000000000000081526004016104b3906112e4565b60405180910390fd5b600160009054906101000a900473ffffffffffffffffffffffffffffffffffffffff1673ffffffffffffffffffffffffffffffffffffffff163373ffffffffffffffffffffffffffffffffffffffff1614806105655750600260009054906101000a900473ffffffffffffffffffffffffffffffffffffffff1673ffffffffffffffffffffffffffffffffffffffff163373ffffffffffffffffffffffffffffffffffffffff16145b6105a4576040517f08c379a000000000000000000000000000000000000000000000000000000000815260040161059b90611376565b60405180910390fd5b60026006546105b391906113f4565b3410156105f5576040517f08c379a00000000000000000000000000000000000000000000000000000000081526004016105ec90611471565b60405180910390fd5b600c60029054906101000a900460ff1661065057600260065461061891906113f4565b600860008282546106299190611491565b925050819055506001600c60026101000a81548160ff02191690831515021790555061074f565b600260065461065f91906113f4565b600860008282546106709190611491565b9250508190555060008054906101000a900473ffffffffffffffffffffffffffffffffffffffff1673ffffffffffffffffffffffffffffffffffffffff166322c8a43e600654600454600960019054906101000a900460ff16600560009054906101000a900462ffffff166040518563ffffffff1660e01b81526004016106f993929190611500565b6000604051808303818588803b15801561071257600080fd5b505af1158015610726573d6000803e3d6000fd5b50505050506001600c60006101000a81548160ff0219169083151502179055506000600b819055505b565b600160009054906101000a900473ffffffffffffffffffffffffffffffffffffffff1673ffffffffffffffffffffffffffffffffffffffff163373ffffffffffffffffffffffffffffffffffffffff1614806107fa5750600260009054906101000a900473ffffffffffffffffffffffffffffffffffffffff1673ffffffffffffffffffffffffffffffffffffffff163373ffffffffffffffffffffffffffffffffffffffff16145b610839576040517f08c379a0000000000000000000000000000000000000000000000000000000008152600401610830906112e4565b60405180910390fd5b600160009054906101000a900473ffffffffffffffffffffffffffffffffffffffff1673ffffffffffffffffffffffffffffffffffffffff163373ffffffffffffffffffffffffffffffffffffffff1614806108e25750600260009054906101000a900473ffffffffffffffffffffffffffffffffffffffff1673ffffffffffffffffffffffffffffffffffffffff163373ffffffffffffffffffffffffffffffffffffffff16145b610921576040517f08c379a000000000000000000000000000000000000000000000000000000000815260040161091890611376565b60405180910390fd5b610929610bb1565b600681905550600260065461093e91906113f4565b341015610980576040517f08c379a000000000000000000000000000000000000000000000000000000000815260040161097790611471565b60405180910390fd5b600c60009054906101000a900460ff16156109d0576040517f08c379a00000000000000000000000000000000000000000000000000000000081526004016109c790611583565b60405180910390fd5b600c60029054906101000a900460ff1615610a20576040517f08c379a0000000000000000000000000000000000000000000000000000000008152600401610a17906115ef565b60405180910390fd5b600960009054906101000a900460ff16610a7b576002600654610a4391906113f4565b60076000828254610a549190611491565b925050819055506001600960006101000a81548160ff021916908315150217905550610baf565b6002600654610a8a91906113f4565b60076000828254610a9b9190611491565b9250508190555060008054906101000a900473ffffffffffffffffffffffffffffffffffffffff1673ffffffffffffffffffffffffffffffffffffffff166309a22e02600654600160009054906101000a900473ffffffffffffffffffffffffffffffffffffffff16600260009054906101000a900473ffffffffffffffffffffffffffffffffffffffff16600d54600960019054906101000a900460ff166040518663ffffffff1660e01b8152600401610b59949392919061160f565b6000604051808303818588803b158015610b7257600080fd5b505af1158015610b86573d6000803e3d6000fd5b50505050506001600c60006101000a81548160ff0219169083151502179055506000600b819055505b565b60008060009054906101000a900473ffffffffffffffffffffffffffffffffffffffff1673ffffffffffffffffffffffffffffffffffffffff16630b3e9c96600960019054906101000a900460ff166040518263ffffffff1660e01b8152600401610c1c9190611233565b602060405180830381865afa158015610c39573d6000803e3d6000fd5b505050506040513d601f19601f82011682018060405250810190610c5d9190611669565b905090565b6000600260009054906101000a900473ffffffffffffffffffffffffffffffffffffffff16905090565b600160009054906101000a900473ffffffffffffffffffffffffffffffffffffffff1681565b60075481565b60008054906101000a900473ffffffffffffffffffffffffffffffffffffffff1673ffffffffffffffffffffffffffffffffffffffff163373ffffffffffffffffffffffffffffffffffffffff1614610d46576040517f08c379a0000000000000000000000000000000000000000000000000000000008152600401610d3d90611708565b60405180910390fd5b81600360006101000a81548173ffffffffffffffffffffffffffffffffffffffff021916908373ffffffffffffffffffffffffffffffffffffffff16021790555080600481905550600c60029054906101000a900460ff16610db8574262015180610db19190611491565b600a819055505b5050565b678ac7230489e80000341015610e07576040517f08c379a0000000000000000000000000000000000000000000000000000000008152600401610dfe9061179a565b60405180910390fd5b33600160006101000a81548173ffffffffffffffffffffffffffffffffffffffff021916908373ffffffffffffffffffffffffffffffffffffffff1602179055504262093a80610e579190611491565b600b81905550565b600960019054906101000a900460ff1681565b6000600360009054906101000a900473ffffffffffffffffffffffffffffffffffffffff16905090565b60065481565b60085481565b600560009054906101000a900462ffffff1681565b42600b541080610ecf57506000600b54145b610f0e576040517f08c379a0000000000000000000000000000000000000000000000000000000008152600401610f0590611806565b60405180910390fd5b42600a541115610f53576040517f08c379a0000000000000000000000000000000000000000000000000000000008152600401610f4a90611898565b60405180910390fd5b600960009054906101000a900460ff1615610ff9573373ffffffffffffffffffffffffffffffffffffffff16600360009054906101000a900473ffffffffffffffffffffffffffffffffffffffff1673ffffffffffffffffffffffffffffffffffffffff1614610ff8576040517f08c379a0000000000000000000000000000000000000000000000000000000008152600401610fef90611904565b60405180910390fd5b5b600360009054906101000a900473ffffffffffffffffffffffffffffffffffffffff1673ffffffffffffffffffffffffffffffffffffffff166108fc479081150290604051600060405180830381858888f19350505050158015611061573d6000803e3d6000fd5b50565b600360009054906101000a900473ffffffffffffffffffffffffffffffffffffffff1681565b6000600160009054906101000a900473ffffffffffffffffffffffffffffffffffffffff16905090565b600073ffffffffffffffffffffffffffffffffffffffff82169050919050565b60006110df826110b4565b9050919050565b6110ef816110d4565b82525050565b600060208201905061110a60008301846110e6565b92915050565b60008115159050919050565b61112581611110565b82525050565b6000602082019050611140600083018461111c565b92915050565b6000819050919050565b61115981611146565b82525050565b60006020820190506111746000830184611150565b92915050565b600080fd5b611188816110d4565b811461119357600080fd5b50565b6000813590506111a58161117f565b92915050565b6111b481611146565b81146111bf57600080fd5b50565b6000813590506111d1816111ab565b92915050565b600080604083850312156111ee576111ed61117a565b5b60006111fc85828601611196565b925050602061120d858286016111c2565b9150509250929050565b600060ff82169050919050565b61122d81611217565b82525050565b60006020820190506112486000830184611224565b92915050565b600062ffffff82169050919050565b6112668161124e565b82525050565b6000602082019050611281600083018461125d565b92915050565b600082825260208201905092915050565b7f596f75206e65656420746f20626520612053656c6c6572206f72204275796572600082015250565b60006112ce602083611287565b91506112d982611298565b602082019050919050565b600060208201905081810360008301526112fd816112c1565b9050919050565b7f596f75206e65656420746f20626520746865204275796572206f72207468652060008201527f53656c6c65720000000000000000000000000000000000000000000000000000602082015250565b6000611360602683611287565b915061136b82611304565b604082019050919050565b6000602082019050818103600083015261138f81611353565b9050919050565b7f4e487b7100000000000000000000000000000000000000000000000000000000600052601260045260246000fd5b7f4e487b7100000000000000000000000000000000000000000000000000000000600052601160045260246000fd5b60006113ff82611146565b915061140a83611146565b92508261141a57611419611396565b5b828204905092915050565b7f53656e642068616c66206f6620746865204a7572792066656500000000000000600082015250565b600061145b601983611287565b915061146682611425565b602082019050919050565b6000602082019050818103600083015261148a8161144e565b9050919050565b600061149c82611146565b91506114a783611146565b92508282019050808211156114bf576114be6113c5565b5b92915050565b6000819050919050565b60006114ea6114e56114e08461124e565b6114c5565b611146565b9050919050565b6114fa816114cf565b82525050565b60006060820190506115156000830186611150565b6115226020830185611224565b61152f60408301846114f1565b949350505050565b7f4f6e6c7920312064697370757465207065722053430000000000000000000000600082015250565b600061156d601583611287565b915061157882611537565b602082019050919050565b6000602082019050818103600083015261159c81611560565b9050919050565b7f4170656c6174696f6e2070726f636573736564206f722066696e697368656400600082015250565b60006115d9601f83611287565b91506115e4826115a3565b602082019050919050565b60006020820190508181036000830152611608816115cc565b9050919050565b600060808201905061162460008301876110e6565b61163160208301866110e6565b61163e6040830185611150565b61164b6060830184611224565b95945050505050565b600081519050611663816111ab565b92915050565b60006020828403121561167f5761167e61117a565b5b600061168d84828501611654565b91505092915050565b7f596f7520617265206e6f74207468652041726269747261676520636f6e74726160008201527f6374000000000000000000000000000000000000000000000000000000000000602082015250565b60006116f2602283611287565b91506116fd82611696565b604082019050919050565b60006020820190508181036000830152611721816116e5565b9050919050565b7f596f75206e65656420746f2073656e64206d6f72652045544820746f2062757960008201527f207468652070726f647563740000000000000000000000000000000000000000602082015250565b6000611784602c83611287565b915061178f82611728565b604082019050919050565b600060208201905081810360008301526117b381611777565b9050919050565b7f5468652077697468647261776e2074696d65206973206e6f74206f7665720000600082015250565b60006117f0601e83611287565b91506117fb826117ba565b602082019050919050565b6000602082019050818103600083015261181f816117e3565b9050919050565b7f596f75206e65656420746f207761697420756e74696c2074686520617070656160008201527f6c2074696d65206973206f766572000000000000000000000000000000000000602082015250565b6000611882602e83611287565b915061188d82611826565b604082019050919050565b600060208201905081810360008301526118b181611875565b9050919050565b7f596f7520617265206e6f74207468652077696e6e657200000000000000000000600082015250565b60006118ee601683611287565b91506118f9826118b8565b602082019050919050565b6000602082019050818103600083015261191d816118e1565b905091905056fea2646970667358221220475200bf7c56754ba53c2f95f03bf93dff7381c171304fe416d9bf3d3ba8acec64736f6c63430008110033",
  "linkReferences": {},
  "deployedLinkReferences": {}
}